{
  "address": "0xe7f1725E7734CE288F8367e1Bb143E90bb3F0512",
  "abi": [
    {
      "inputs": [],
      "stateMutability": "nonpayable",
      "type": "constructor"
    },
    {
      "inputs": [],
      "name": "getTotalWaves",
      "outputs": [
        {
          "internalType": "uint256",
          "name": "",
          "type": "uint256"
        }
      ],
      "stateMutability": "view",
      "type": "function"
    },
    {
      "inputs": [],
      "name": "wave",
      "outputs": [],
      "stateMutability": "nonpayable",
      "type": "function"
    }
  ],
  "transactionHash": "0xb99564bda66d22dad6712741b3865e74b0bfd1677b6e1b841159d371f42cb389",
  "args": [],
  "numDeployments": 2,
  "solcInputHash": "a112ffcb9949b94c360b853625f26eb6",
  "bytecode": "0x608060405234801561001057600080fd5b5061003c6040518060600160405280602581526020016106ec6025913961004160201b6101081760201c565b6101bb565b6100dd816040516024016100559190610199565b6040516020818303038152906040527f41304fac000000000000000000000000000000000000000000000000000000007bffffffffffffffffffffffffffffffffffffffffffffffffffffffff19166020820180517bffffffffffffffffffffffffffffffffffffffffffffffffffffffff83818316178352505050506100e060201b60201c565b50565b60008151905060006a636f6e736f6c652e6c6f679050602083016000808483855afa5050505050565b600081519050919050565b600082825260208201905092915050565b60005b83811015610143578082015181840152602081019050610128565b60008484015250505050565b6000601f19601f8301169050919050565b600061016b82610109565b6101758185610114565b9350610185818560208601610125565b61018e8161014f565b840191505092915050565b600060208201905081810360008301526101b38184610160565b905092915050565b610522806101ca6000396000f3fe608060405234801561001057600080fd5b50600436106100365760003560e01c80636fe15b441461003b5780639a2cdc0814610045575b600080fd5b610043610063565b005b61004d6100bd565b60405161005a919061031b565b60405180910390f35b60016000808282546100759190610365565b925050819055506100bb6040518060400160405280600d81526020017f2573206861732077617665642100000000000000000000000000000000000000815250336101a1565b565b60006101006040518060400160405280601781526020017f5765206861766520256420746f74616c2077617665732100000000000000000081525060005461023d565b600054905090565b61019e8160405160240161011c9190610429565b6040516020818303038152906040527f41304fac000000000000000000000000000000000000000000000000000000007bffffffffffffffffffffffffffffffffffffffffffffffffffffffff19166020820180517bffffffffffffffffffffffffffffffffffffffffffffffffffffffff83818316178352505050506102d9565b50565b61023982826040516024016101b792919061048c565b6040516020818303038152906040527f319af333000000000000000000000000000000000000000000000000000000007bffffffffffffffffffffffffffffffffffffffffffffffffffffffff19166020820180517bffffffffffffffffffffffffffffffffffffffffffffffffffffffff83818316178352505050506102d9565b5050565b6102d582826040516024016102539291906104bc565b6040516020818303038152906040527fb60e72cc000000000000000000000000000000000000000000000000000000007bffffffffffffffffffffffffffffffffffffffffffffffffffffffff19166020820180517bffffffffffffffffffffffffffffffffffffffffffffffffffffffff83818316178352505050506102d9565b5050565b60008151905060006a636f6e736f6c652e6c6f679050602083016000808483855afa5050505050565b6000819050919050565b61031581610302565b82525050565b6000602082019050610330600083018461030c565b92915050565b7f4e487b7100000000000000000000000000000000000000000000000000000000600052601160045260246000fd5b600061037082610302565b915061037b83610302565b925082820190508082111561039357610392610336565b5b92915050565b600081519050919050565b600082825260208201905092915050565b60005b838110156103d35780820151818401526020810190506103b8565b60008484015250505050565b6000601f19601f8301169050919050565b60006103fb82610399565b61040581856103a4565b93506104158185602086016103b5565b61041e816103df565b840191505092915050565b6000602082019050818103600083015261044381846103f0565b905092915050565b600073ffffffffffffffffffffffffffffffffffffffff82169050919050565b60006104768261044b565b9050919050565b6104868161046b565b82525050565b600060408201905081810360008301526104a681856103f0565b90506104b5602083018461047d565b9392505050565b600060408201905081810360008301526104d681856103f0565b90506104e5602083018461030c565b939250505056fea264697066735822122054ca64b97f497b81992c10efb778a8f5bd208cfa601bee61739acc7056447efa64736f6c63430008110033596f20796f2c204920616d206120636f6e747261637420616e64204920616d20736d617274",
  "devdoc": {
    "kind": "dev",
    "methods": {},
    "version": 1
  },
  "userdoc": {
    "kind": "user",
    "methods": {},
    "version": 1
  },
  "storageLayout": {
    "storage": [
      {
        "astId": 4,
        "contract": "contracts/WavePortal.sol:WavePortal",
        "label": "totalWaves",
        "offset": 0,
        "slot": "0",
        "type": "t_uint256"
      }
    ],
    "types": {
      "t_uint256": {
        "encoding": "inplace",
        "label": "uint256",
        "numberOfBytes": "32"
      }
    }
  }
}