{
  "address": "0x5FbDB2315678afecb367f032d93F642f64180aa3",
  "abi": [
    {
      "inputs": [],
      "stateMutability": "payable",
      "type": "constructor"
    },
    {
      "anonymous": false,
      "inputs": [
        {
          "indexed": true,
          "internalType": "address",
          "name": "from",
          "type": "address"
        },
        {
          "indexed": false,
          "internalType": "uint256",
          "name": "timestamp",
          "type": "uint256"
        },
        {
          "indexed": false,
          "internalType": "string",
          "name": "message",
          "type": "string"
        }
      ],
      "name": "NewWave",
      "type": "event"
    },
    {
      "inputs": [],
      "name": "getAllWaves",
      "outputs": [
        {
          "components": [
            {
              "internalType": "address",
              "name": "waver",
              "type": "address"
            },
            {
              "internalType": "string",
              "name": "message",
              "type": "string"
            },
            {
              "internalType": "uint256",
              "name": "timestamp",
              "type": "uint256"
            }
          ],
          "internalType": "struct WavePortal.Wave[]",
          "name": "",
          "type": "tuple[]"
        }
      ],
      "stateMutability": "view",
      "type": "function"
    },
    {
      "inputs": [],
      "name": "totalWaves",
      "outputs": [
        {
          "internalType": "uint256",
          "name": "",
          "type": "uint256"
        }
      ],
      "stateMutability": "view",
      "type": "function"
    },
    {
      "inputs": [
        {
          "internalType": "string",
          "name": "_message",
          "type": "string"
        }
      ],
      "name": "wave",
      "outputs": [],
      "stateMutability": "nonpayable",
      "type": "function"
    },
    {
      "inputs": [
        {
          "internalType": "uint256",
          "name": "",
          "type": "uint256"
        }
      ],
      "name": "waves",
      "outputs": [
        {
          "internalType": "address",
          "name": "waver",
          "type": "address"
        },
        {
          "internalType": "string",
          "name": "message",
          "type": "string"
        },
        {
          "internalType": "uint256",
          "name": "timestamp",
          "type": "uint256"
        }
      ],
      "stateMutability": "view",
      "type": "function"
    }
  ],
  "transactionHash": "0xe64b34de35fc673cdafac2e86710e1c1b9d24300342b72d86a80d4d9d3609e68",
  "args": [],
  "numDeployments": 1,
  "solcInputHash": "392efa5c7e227eb449b071375ca91554",
  "bytecode": "0x608060405262000033604051806060016040528060258152602001620012f7602591396200003960201b620005811760201c565b620001c3565b620000d9816040516024016200005091906200019f565b6040516020818303038152906040527f41304fac000000000000000000000000000000000000000000000000000000007bffffffffffffffffffffffffffffffffffffffffffffffffffffffff19166020820180517bffffffffffffffffffffffffffffffffffffffffffffffffffffffff8381831617835250505050620000dc60201b60201c565b50565b60008151905060006a636f6e736f6c652e6c6f679050602083016000808483855afa5050505050565b600081519050919050565b600082825260208201905092915050565b60005b838110156200014157808201518184015260208101905062000124565b60008484015250505050565b6000601f19601f8301169050919050565b60006200016b8262000105565b62000177818562000110565b93506200018981856020860162000121565b62000194816200014d565b840191505092915050565b60006020820190508181036000830152620001bb81846200015e565b905092915050565b61112480620001d36000396000f3fe608060405234801561001057600080fd5b506004361061004c5760003560e01c8063291bcab314610051578063449d46c01461006f578063bd43a9081461008b578063c781267a146100a9575b600080fd5b6100596100db565b60405161006691906106fb565b60405180910390f35b61008960048036038101906100849190610870565b6100e1565b005b61009361034e565b6040516100a09190610a9a565b60405180910390f35b6100c360048036038101906100be9190610ae8565b61049f565b6040516100d293929190610b6e565b60405180910390f35b60005481565b60016000808282546100f39190610bdb565b9250508190555061013a6040518060400160405280601681526020017f257320776176656420772f206d65737361676520257300000000000000000000815250338361061a565b600160405180606001604052803373ffffffffffffffffffffffffffffffffffffffff16815260200183815260200142815250908060018154018082558091505060019003906000526020600020906003020160009091909190915060008201518160000160006101000a81548173ffffffffffffffffffffffffffffffffffffffff021916908373ffffffffffffffffffffffffffffffffffffffff16021790555060208201518160010190816101f29190610e1b565b506040820151816002015550506000655af3107a400090504781111561024d576040517f08c379a000000000000000000000000000000000000000000000000000000000815260040161024490610f5f565b60405180910390fd5b60003373ffffffffffffffffffffffffffffffffffffffff168260405161027390610fb0565b60006040518083038185875af1925050503d80600081146102b0576040519150601f19603f3d011682016040523d82523d6000602084013e6102b5565b606091505b50509050806102f9576040517f08c379a00000000000000000000000000000000000000000000000000000000081526004016102f090611037565b60405180910390fd5b3373ffffffffffffffffffffffffffffffffffffffff167f5f7e16dc676677766a70e9c5628aa6c54ddb8b6e5188e2ae1e1f17f1ffbea7164285604051610341929190611057565b60405180910390a2505050565b60606001805480602002602001604051908101604052809291908181526020016000905b8282101561049657838290600052602060002090600302016040518060600160405290816000820160009054906101000a900473ffffffffffffffffffffffffffffffffffffffff1673ffffffffffffffffffffffffffffffffffffffff1673ffffffffffffffffffffffffffffffffffffffff1681526020016001820180546103fb90610c3e565b80601f016020809104026020016040519081016040528092919081815260200182805461042790610c3e565b80156104745780601f1061044957610100808354040283529160200191610474565b820191906000526020600020905b81548152906001019060200180831161045757829003601f168201915b5050505050815260200160028201548152505081526020019060010190610372565b50505050905090565b600181815481106104af57600080fd5b90600052602060002090600302016000915090508060000160009054906101000a900473ffffffffffffffffffffffffffffffffffffffff16908060010180546104f890610c3e565b80601f016020809104026020016040519081016040528092919081815260200182805461052490610c3e565b80156105715780601f1061054657610100808354040283529160200191610571565b820191906000526020600020905b81548152906001019060200180831161055457829003601f168201915b5050505050908060020154905083565b610617816040516024016105959190611087565b6040516020818303038152906040527f41304fac000000000000000000000000000000000000000000000000000000007bffffffffffffffffffffffffffffffffffffffffffffffffffffffff19166020820180517bffffffffffffffffffffffffffffffffffffffffffffffffffffffff83818316178352505050506106b9565b50565b6106b4838383604051602401610632939291906110a9565b6040516020818303038152906040527fe0e9ad4f000000000000000000000000000000000000000000000000000000007bffffffffffffffffffffffffffffffffffffffffffffffffffffffff19166020820180517bffffffffffffffffffffffffffffffffffffffffffffffffffffffff83818316178352505050506106b9565b505050565b60008151905060006a636f6e736f6c652e6c6f679050602083016000808483855afa5050505050565b6000819050919050565b6106f5816106e2565b82525050565b600060208201905061071060008301846106ec565b92915050565b6000604051905090565b600080fd5b600080fd5b600080fd5b600080fd5b6000601f19601f8301169050919050565b7f4e487b7100000000000000000000000000000000000000000000000000000000600052604160045260246000fd5b61077d82610734565b810181811067ffffffffffffffff8211171561079c5761079b610745565b5b80604052505050565b60006107af610716565b90506107bb8282610774565b919050565b600067ffffffffffffffff8211156107db576107da610745565b5b6107e482610734565b9050602081019050919050565b82818337600083830152505050565b600061081361080e846107c0565b6107a5565b90508281526020810184848401111561082f5761082e61072f565b5b61083a8482856107f1565b509392505050565b600082601f8301126108575761085661072a565b5b8135610867848260208601610800565b91505092915050565b60006020828403121561088657610885610720565b5b600082013567ffffffffffffffff8111156108a4576108a3610725565b5b6108b084828501610842565b91505092915050565b600081519050919050565b600082825260208201905092915050565b6000819050602082019050919050565b600073ffffffffffffffffffffffffffffffffffffffff82169050919050565b6000610910826108e5565b9050919050565b61092081610905565b82525050565b600081519050919050565b600082825260208201905092915050565b60005b83811015610960578082015181840152602081019050610945565b60008484015250505050565b600061097782610926565b6109818185610931565b9350610991818560208601610942565b61099a81610734565b840191505092915050565b6109ae816106e2565b82525050565b60006060830160008301516109cc6000860182610917565b50602083015184820360208601526109e4828261096c565b91505060408301516109f960408601826109a5565b508091505092915050565b6000610a1083836109b4565b905092915050565b6000602082019050919050565b6000610a30826108b9565b610a3a81856108c4565b935083602082028501610a4c856108d5565b8060005b85811015610a885784840389528151610a698582610a04565b9450610a7483610a18565b925060208a01995050600181019050610a50565b50829750879550505050505092915050565b60006020820190508181036000830152610ab48184610a25565b905092915050565b610ac5816106e2565b8114610ad057600080fd5b50565b600081359050610ae281610abc565b92915050565b600060208284031215610afe57610afd610720565b5b6000610b0c84828501610ad3565b91505092915050565b610b1e81610905565b82525050565b600082825260208201905092915050565b6000610b4082610926565b610b4a8185610b24565b9350610b5a818560208601610942565b610b6381610734565b840191505092915050565b6000606082019050610b836000830186610b15565b8181036020830152610b958185610b35565b9050610ba460408301846106ec565b949350505050565b7f4e487b7100000000000000000000000000000000000000000000000000000000600052601160045260246000fd5b6000610be6826106e2565b9150610bf1836106e2565b9250828201905080821115610c0957610c08610bac565b5b92915050565b7f4e487b7100000000000000000000000000000000000000000000000000000000600052602260045260246000fd5b60006002820490506001821680610c5657607f821691505b602082108103610c6957610c68610c0f565b5b50919050565b60008190508160005260206000209050919050565b60006020601f8301049050919050565b600082821b905092915050565b600060088302610cd17fffffffffffffffffffffffffffffffffffffffffffffffffffffffffffffffff82610c94565b610cdb8683610c94565b95508019841693508086168417925050509392505050565b6000819050919050565b6000610d18610d13610d0e846106e2565b610cf3565b6106e2565b9050919050565b6000819050919050565b610d3283610cfd565b610d46610d3e82610d1f565b848454610ca1565b825550505050565b600090565b610d5b610d4e565b610d66818484610d29565b505050565b5b81811015610d8a57610d7f600082610d53565b600181019050610d6c565b5050565b601f821115610dcf57610da081610c6f565b610da984610c84565b81016020851015610db8578190505b610dcc610dc485610c84565b830182610d6b565b50505b505050565b600082821c905092915050565b6000610df260001984600802610dd4565b1980831691505092915050565b6000610e0b8383610de1565b9150826002028217905092915050565b610e2482610926565b67ffffffffffffffff811115610e3d57610e3c610745565b5b610e478254610c3e565b610e52828285610d8e565b600060209050601f831160018114610e855760008415610e73578287015190505b610e7d8582610dff565b865550610ee5565b601f198416610e9386610c6f565b60005b82811015610ebb57848901518255600182019150602085019450602081019050610e96565b86831015610ed85784890151610ed4601f891682610de1565b8355505b6001600288020188555050505b505050505050565b7f547279696e6720746f207769746864726177206d6f7265206d6f6e657920746860008201527f616e2074686520636f6e7472616374206861732e000000000000000000000000602082015250565b6000610f49603483610b24565b9150610f5482610eed565b604082019050919050565b60006020820190508181036000830152610f7881610f3c565b9050919050565b600081905092915050565b50565b6000610f9a600083610f7f565b9150610fa582610f8a565b600082019050919050565b6000610fbb82610f8d565b9150819050919050565b7f4661696c656420746f207769746864726177206d6f6e65792066726f6d20636f60008201527f6e74726163742e00000000000000000000000000000000000000000000000000602082015250565b6000611021602783610b24565b915061102c82610fc5565b604082019050919050565b6000602082019050818103600083015261105081611014565b9050919050565b600060408201905061106c60008301856106ec565b818103602083015261107e8184610b35565b90509392505050565b600060208201905081810360008301526110a18184610b35565b905092915050565b600060608201905081810360008301526110c38186610b35565b90506110d26020830185610b15565b81810360408301526110e48184610b35565b905094935050505056fea2646970667358221220daac1c78c68921157c03f641fcb887bab734023a89a9699afc944c16baee107364736f6c63430008110033596f20796f2c204920616d206120636f6e747261637420616e64204920616d20736d617274",
  "devdoc": {
    "kind": "dev",
    "methods": {},
    "version": 1
  },
  "userdoc": {
    "kind": "user",
    "methods": {},
    "version": 1
  },
  "storageLayout": {
    "storage": [
      {
        "astId": 4,
        "contract": "contracts/WavePortal.sol:WavePortal",
        "label": "totalWaves",
        "offset": 0,
        "slot": "0",
        "type": "t_uint256"
      },
      {
        "astId": 23,
        "contract": "contracts/WavePortal.sol:WavePortal",
        "label": "waves",
        "offset": 0,
        "slot": "1",
        "type": "t_array(t_struct(Wave)19_storage)dyn_storage"
      }
    ],
    "types": {
      "t_address": {
        "encoding": "inplace",
        "label": "address",
        "numberOfBytes": "20"
      },
      "t_array(t_struct(Wave)19_storage)dyn_storage": {
        "base": "t_struct(Wave)19_storage",
        "encoding": "dynamic_array",
        "label": "struct WavePortal.Wave[]",
        "numberOfBytes": "32"
      },
      "t_string_storage": {
        "encoding": "bytes",
        "label": "string",
        "numberOfBytes": "32"
      },
      "t_struct(Wave)19_storage": {
        "encoding": "inplace",
        "label": "struct WavePortal.Wave",
        "members": [
          {
            "astId": 14,
            "contract": "contracts/WavePortal.sol:WavePortal",
            "label": "waver",
            "offset": 0,
            "slot": "0",
            "type": "t_address"
          },
          {
            "astId": 16,
            "contract": "contracts/WavePortal.sol:WavePortal",
            "label": "message",
            "offset": 0,
            "slot": "1",
            "type": "t_string_storage"
          },
          {
            "astId": 18,
            "contract": "contracts/WavePortal.sol:WavePortal",
            "label": "timestamp",
            "offset": 0,
            "slot": "2",
            "type": "t_uint256"
          }
        ],
        "numberOfBytes": "96"
      },
      "t_uint256": {
        "encoding": "inplace",
        "label": "uint256",
        "numberOfBytes": "32"
      }
    }
  }
}