{
  "address": "0x032f9E40334D45d44f9C4928dA9dF876a6F702e9",
  "abi": [
    {
      "inputs": [],
      "stateMutability": "payable",
      "type": "constructor"
    },
    {
      "anonymous": false,
      "inputs": [
        {
          "indexed": true,
          "internalType": "address",
          "name": "from",
          "type": "address"
        },
        {
          "indexed": false,
          "internalType": "uint256",
          "name": "timestamp",
          "type": "uint256"
        },
        {
          "indexed": false,
          "internalType": "string",
          "name": "message",
          "type": "string"
        }
      ],
      "name": "NewWave",
      "type": "event"
    },
    {
      "inputs": [],
      "name": "getAllWaves",
      "outputs": [
        {
          "components": [
            {
              "internalType": "address",
              "name": "waver",
              "type": "address"
            },
            {
              "internalType": "string",
              "name": "message",
              "type": "string"
            },
            {
              "internalType": "uint256",
              "name": "timestamp",
              "type": "uint256"
            }
          ],
          "internalType": "struct WavePortal.Wave[]",
          "name": "",
          "type": "tuple[]"
        }
      ],
      "stateMutability": "view",
      "type": "function"
    },
    {
      "inputs": [
        {
          "internalType": "address",
          "name": "",
          "type": "address"
        }
      ],
      "name": "lastWavedAt",
      "outputs": [
        {
          "internalType": "uint256",
          "name": "",
          "type": "uint256"
        }
      ],
      "stateMutability": "view",
      "type": "function"
    },
    {
      "inputs": [],
      "name": "totalWaves",
      "outputs": [
        {
          "internalType": "uint256",
          "name": "",
          "type": "uint256"
        }
      ],
      "stateMutability": "view",
      "type": "function"
    },
    {
      "inputs": [
        {
          "internalType": "string",
          "name": "_message",
          "type": "string"
        }
      ],
      "name": "wave",
      "outputs": [],
      "stateMutability": "nonpayable",
      "type": "function"
    },
    {
      "inputs": [
        {
          "internalType": "uint256",
          "name": "",
          "type": "uint256"
        }
      ],
      "name": "waves",
      "outputs": [
        {
          "internalType": "address",
          "name": "waver",
          "type": "address"
        },
        {
          "internalType": "string",
          "name": "message",
          "type": "string"
        },
        {
          "internalType": "uint256",
          "name": "timestamp",
          "type": "uint256"
        }
      ],
      "stateMutability": "view",
      "type": "function"
    }
  ],
  "transactionHash": "0xff66a719c6c5a9481a35667cee8c78064dfe478aa8c97c96d8b1356183f189f4",
  "args": [],
  "numDeployments": 5,
  "solcInputHash": "214b45a5b35eb58d7edd36f630e2df17",
  "bytecode": "0x60806040526064444262000014919062000065565b620000209190620000cf565b60018190555062000107565b6000819050919050565b7f4e487b7100000000000000000000000000000000000000000000000000000000600052601160045260246000fd5b600062000072826200002c565b91506200007f836200002c565b92508282019050808211156200009a576200009962000036565b5b92915050565b7f4e487b7100000000000000000000000000000000000000000000000000000000600052601260045260246000fd5b6000620000dc826200002c565b9150620000e9836200002c565b925082620000fc57620000fb620000a0565b5b828206905092915050565b61141d80620001176000396000f3fe608060405234801561001057600080fd5b50600436106100575760003560e01c8063291bcab31461005c578063449d46c01461007a578063a42a466314610096578063bd43a908146100c6578063c781267a146100e4575b600080fd5b610064610116565b60405161007191906108d6565b60405180910390f35b610094600480360381019061008f9190610a4b565b61011c565b005b6100b060048036038101906100ab9190610af2565b610511565b6040516100bd91906108d6565b60405180910390f35b6100ce610529565b6040516100db9190610cce565b60405180910390f35b6100fe60048036038101906100f99190610d1c565b61067a565b60405161010d93929190610da2565b60405180910390f35b60005481565b42610384600260003373ffffffffffffffffffffffffffffffffffffffff1673ffffffffffffffffffffffffffffffffffffffff1681526020019081526020016000205461016a9190610e0f565b106101aa576040517f08c379a00000000000000000000000000000000000000000000000000000000081526004016101a190610e8f565b60405180910390fd5b42600260003373ffffffffffffffffffffffffffffffffffffffff1673ffffffffffffffffffffffffffffffffffffffff1681526020019081526020016000208190555060016000808282546102009190610e0f565b925050819055506102466040518060400160405280600d81526020017f25732068617320776176656421000000000000000000000000000000000000008152503361075c565b600360405180606001604052803373ffffffffffffffffffffffffffffffffffffffff16815260200183815260200142815250908060018154018082558091505060019003906000526020600020906003020160009091909190915060008201518160000160006101000a81548173ffffffffffffffffffffffffffffffffffffffff021916908373ffffffffffffffffffffffffffffffffffffffff16021790555060208201518160010190816102fe91906110bb565b506040820151816002015550506064600154424461031c9190610e0f565b6103269190610e0f565b61033091906111bc565b6001819055506103776040518060400160405280601681526020017f52616e646f6d20232067656e6572617465643a202564000000000000000000008152506001546107f8565b603260015410156104be576103c16040518060400160405280600781526020017f257320776f6e21000000000000000000000000000000000000000000000000008152503361075c565b6000655af3107a400090504781111561040f576040517f08c379a00000000000000000000000000000000000000000000000000000000081526004016104069061125f565b60405180910390fd5b60003373ffffffffffffffffffffffffffffffffffffffff1682604051610435906112b0565b60006040518083038185875af1925050503d8060008114610472576040519150601f19603f3d011682016040523d82523d6000602084013e610477565b606091505b50509050806104bb576040517f08c379a00000000000000000000000000000000000000000000000000000000081526004016104b290611337565b60405180910390fd5b50505b3373ffffffffffffffffffffffffffffffffffffffff167f5f7e16dc676677766a70e9c5628aa6c54ddb8b6e5188e2ae1e1f17f1ffbea7164283604051610506929190611357565b60405180910390a250565b60026020528060005260406000206000915090505481565b60606003805480602002602001604051908101604052809291908181526020016000905b8282101561067157838290600052602060002090600302016040518060600160405290816000820160009054906101000a900473ffffffffffffffffffffffffffffffffffffffff1673ffffffffffffffffffffffffffffffffffffffff1673ffffffffffffffffffffffffffffffffffffffff1681526020016001820180546105d690610ede565b80601f016020809104026020016040519081016040528092919081815260200182805461060290610ede565b801561064f5780601f106106245761010080835404028352916020019161064f565b820191906000526020600020905b81548152906001019060200180831161063257829003601f168201915b505050505081526020016002820154815250508152602001906001019061054d565b50505050905090565b6003818154811061068a57600080fd5b90600052602060002090600302016000915090508060000160009054906101000a900473ffffffffffffffffffffffffffffffffffffffff16908060010180546106d390610ede565b80601f01602080910402602001604051908101604052809291908181526020018280546106ff90610ede565b801561074c5780601f106107215761010080835404028352916020019161074c565b820191906000526020600020905b81548152906001019060200180831161072f57829003601f168201915b5050505050908060020154905083565b6107f48282604051602401610772929190611387565b6040516020818303038152906040527f319af333000000000000000000000000000000000000000000000000000000007bffffffffffffffffffffffffffffffffffffffffffffffffffffffff19166020820180517bffffffffffffffffffffffffffffffffffffffffffffffffffffffff8381831617835250505050610894565b5050565b610890828260405160240161080e9291906113b7565b6040516020818303038152906040527fb60e72cc000000000000000000000000000000000000000000000000000000007bffffffffffffffffffffffffffffffffffffffffffffffffffffffff19166020820180517bffffffffffffffffffffffffffffffffffffffffffffffffffffffff8381831617835250505050610894565b5050565b60008151905060006a636f6e736f6c652e6c6f679050602083016000808483855afa5050505050565b6000819050919050565b6108d0816108bd565b82525050565b60006020820190506108eb60008301846108c7565b92915050565b6000604051905090565b600080fd5b600080fd5b600080fd5b600080fd5b6000601f19601f8301169050919050565b7f4e487b7100000000000000000000000000000000000000000000000000000000600052604160045260246000fd5b6109588261090f565b810181811067ffffffffffffffff8211171561097757610976610920565b5b80604052505050565b600061098a6108f1565b9050610996828261094f565b919050565b600067ffffffffffffffff8211156109b6576109b5610920565b5b6109bf8261090f565b9050602081019050919050565b82818337600083830152505050565b60006109ee6109e98461099b565b610980565b905082815260208101848484011115610a0a57610a0961090a565b5b610a158482856109cc565b509392505050565b600082601f830112610a3257610a31610905565b5b8135610a428482602086016109db565b91505092915050565b600060208284031215610a6157610a606108fb565b5b600082013567ffffffffffffffff811115610a7f57610a7e610900565b5b610a8b84828501610a1d565b91505092915050565b600073ffffffffffffffffffffffffffffffffffffffff82169050919050565b6000610abf82610a94565b9050919050565b610acf81610ab4565b8114610ada57600080fd5b50565b600081359050610aec81610ac6565b92915050565b600060208284031215610b0857610b076108fb565b5b6000610b1684828501610add565b91505092915050565b600081519050919050565b600082825260208201905092915050565b6000819050602082019050919050565b610b5481610ab4565b82525050565b600081519050919050565b600082825260208201905092915050565b60005b83811015610b94578082015181840152602081019050610b79565b60008484015250505050565b6000610bab82610b5a565b610bb58185610b65565b9350610bc5818560208601610b76565b610bce8161090f565b840191505092915050565b610be2816108bd565b82525050565b6000606083016000830151610c006000860182610b4b565b5060208301518482036020860152610c188282610ba0565b9150506040830151610c2d6040860182610bd9565b508091505092915050565b6000610c448383610be8565b905092915050565b6000602082019050919050565b6000610c6482610b1f565b610c6e8185610b2a565b935083602082028501610c8085610b3b565b8060005b85811015610cbc5784840389528151610c9d8582610c38565b9450610ca883610c4c565b925060208a01995050600181019050610c84565b50829750879550505050505092915050565b60006020820190508181036000830152610ce88184610c59565b905092915050565b610cf9816108bd565b8114610d0457600080fd5b50565b600081359050610d1681610cf0565b92915050565b600060208284031215610d3257610d316108fb565b5b6000610d4084828501610d07565b91505092915050565b610d5281610ab4565b82525050565b600082825260208201905092915050565b6000610d7482610b5a565b610d7e8185610d58565b9350610d8e818560208601610b76565b610d978161090f565b840191505092915050565b6000606082019050610db76000830186610d49565b8181036020830152610dc98185610d69565b9050610dd860408301846108c7565b949350505050565b7f4e487b7100000000000000000000000000000000000000000000000000000000600052601160045260246000fd5b6000610e1a826108bd565b9150610e25836108bd565b9250828201905080821115610e3d57610e3c610de0565b5b92915050565b7f576169742031356d000000000000000000000000000000000000000000000000600082015250565b6000610e79600883610d58565b9150610e8482610e43565b602082019050919050565b60006020820190508181036000830152610ea881610e6c565b9050919050565b7f4e487b7100000000000000000000000000000000000000000000000000000000600052602260045260246000fd5b60006002820490506001821680610ef657607f821691505b602082108103610f0957610f08610eaf565b5b50919050565b60008190508160005260206000209050919050565b60006020601f8301049050919050565b600082821b905092915050565b600060088302610f717fffffffffffffffffffffffffffffffffffffffffffffffffffffffffffffffff82610f34565b610f7b8683610f34565b95508019841693508086168417925050509392505050565b6000819050919050565b6000610fb8610fb3610fae846108bd565b610f93565b6108bd565b9050919050565b6000819050919050565b610fd283610f9d565b610fe6610fde82610fbf565b848454610f41565b825550505050565b600090565b610ffb610fee565b611006818484610fc9565b505050565b5b8181101561102a5761101f600082610ff3565b60018101905061100c565b5050565b601f82111561106f5761104081610f0f565b61104984610f24565b81016020851015611058578190505b61106c61106485610f24565b83018261100b565b50505b505050565b600082821c905092915050565b600061109260001984600802611074565b1980831691505092915050565b60006110ab8383611081565b9150826002028217905092915050565b6110c482610b5a565b67ffffffffffffffff8111156110dd576110dc610920565b5b6110e78254610ede565b6110f282828561102e565b600060209050601f8311600181146111255760008415611113578287015190505b61111d858261109f565b865550611185565b601f19841661113386610f0f565b60005b8281101561115b57848901518255600182019150602085019450602081019050611136565b868310156111785784890151611174601f891682611081565b8355505b6001600288020188555050505b505050505050565b7f4e487b7100000000000000000000000000000000000000000000000000000000600052601260045260246000fd5b60006111c7826108bd565b91506111d2836108bd565b9250826111e2576111e161118d565b5b828206905092915050565b7f547279696e6720746f207769746864726177206d6f7265206d6f6e657920746860008201527f616e2074686520636f6e7472616374206861732e000000000000000000000000602082015250565b6000611249603483610d58565b9150611254826111ed565b604082019050919050565b600060208201905081810360008301526112788161123c565b9050919050565b600081905092915050565b50565b600061129a60008361127f565b91506112a58261128a565b600082019050919050565b60006112bb8261128d565b9150819050919050565b7f4661696c656420746f207769746864726177206d6f6e65792066726f6d20636f60008201527f6e74726163742e00000000000000000000000000000000000000000000000000602082015250565b6000611321602783610d58565b915061132c826112c5565b604082019050919050565b6000602082019050818103600083015261135081611314565b9050919050565b600060408201905061136c60008301856108c7565b818103602083015261137e8184610d69565b90509392505050565b600060408201905081810360008301526113a18185610d69565b90506113b06020830184610d49565b9392505050565b600060408201905081810360008301526113d18185610d69565b90506113e060208301846108c7565b939250505056fea264697066735822122022796755c436b8e88e512933efe94f8eb69db0471499e5182e76cf9921c3fa7464736f6c63430008110033",
  "devdoc": {
    "kind": "dev",
    "methods": {},
    "version": 1
  },
  "userdoc": {
    "kind": "user",
    "methods": {},
    "version": 1
  },
  "storageLayout": {
    "storage": [
      {
        "astId": 4,
        "contract": "contracts/WavePortal.sol:WavePortal",
        "label": "totalWaves",
        "offset": 0,
        "slot": "0",
        "type": "t_uint256"
      },
      {
        "astId": 6,
        "contract": "contracts/WavePortal.sol:WavePortal",
        "label": "seed",
        "offset": 0,
        "slot": "1",
        "type": "t_uint256"
      },
      {
        "astId": 18,
        "contract": "contracts/WavePortal.sol:WavePortal",
        "label": "lastWavedAt",
        "offset": 0,
        "slot": "2",
        "type": "t_mapping(t_address,t_uint256)"
      },
      {
        "astId": 29,
        "contract": "contracts/WavePortal.sol:WavePortal",
        "label": "waves",
        "offset": 0,
        "slot": "3",
        "type": "t_array(t_struct(Wave)25_storage)dyn_storage"
      }
    ],
    "types": {
      "t_address": {
        "encoding": "inplace",
        "label": "address",
        "numberOfBytes": "20"
      },
      "t_array(t_struct(Wave)25_storage)dyn_storage": {
        "base": "t_struct(Wave)25_storage",
        "encoding": "dynamic_array",
        "label": "struct WavePortal.Wave[]",
        "numberOfBytes": "32"
      },
      "t_mapping(t_address,t_uint256)": {
        "encoding": "mapping",
        "key": "t_address",
        "label": "mapping(address => uint256)",
        "numberOfBytes": "32",
        "value": "t_uint256"
      },
      "t_string_storage": {
        "encoding": "bytes",
        "label": "string",
        "numberOfBytes": "32"
      },
      "t_struct(Wave)25_storage": {
        "encoding": "inplace",
        "label": "struct WavePortal.Wave",
        "members": [
          {
            "astId": 20,
            "contract": "contracts/WavePortal.sol:WavePortal",
            "label": "waver",
            "offset": 0,
            "slot": "0",
            "type": "t_address"
          },
          {
            "astId": 22,
            "contract": "contracts/WavePortal.sol:WavePortal",
            "label": "message",
            "offset": 0,
            "slot": "1",
            "type": "t_string_storage"
          },
          {
            "astId": 24,
            "contract": "contracts/WavePortal.sol:WavePortal",
            "label": "timestamp",
            "offset": 0,
            "slot": "2",
            "type": "t_uint256"
          }
        ],
        "numberOfBytes": "96"
      },
      "t_uint256": {
        "encoding": "inplace",
        "label": "uint256",
        "numberOfBytes": "32"
      }
    }
  }
}